:1000000028C04CC04BC04AC049C048C047C046C0C9
:1000100045C044C043C035C141C040C03FC03EC0E0
:100020003DC00000010203040000000000000102C6
:1000300004804020100804020102020201010101B3
:1000400001010101003240003936003B38003A37E7
:100050008D0011241FBECFE5D2E0DEBFCDBF10E082
:10006000A0E6B0E0EEEBF3E002C005900D92A836FA
:10007000B107D9F710E0A8E6B0E001C01D92AA3799
:10008000B107E1F710E0C2E5D0E003C02297FE011E
:1000900090D1C035D107D1F7E1D08FC1B1CF81E088
:1000A0005BD08091660061E071D08091640061E076
:1000B0006DD088E690E042D008950F931F93CF93C0
:1000C000DF93809162004BD0EC018091600047D0BB
:1000D0008C0161E081E0CD32D8070CF460E08091C2
:1000E000660088D061E081E0013918070CF460E017
:1000F000809164007FD0BE01882777FD8095982F7E
:100100001BD1AB01BC0188E690E025D0DF91CF91F7
:100110001F910F910895D1DF089588E690E001D0F6
:100120000895FC0140E050E0BA01408351836283AE
:10013000738344835583668377830895FC0140E08D
:1001400050E0BA01408351836283738344835583B3
:1001500066837783089508958093700008958C30A6
:1001600008F08C5027B1909170009295990F990FDB
:10017000907C2F73922B97B997B1907C982B97B95D
:10018000369A3699FECF84B195B10895CF93DF9317
:1001900090E0FC01E25DFF4F2491875C9F4FFC01E2
:1001A0008491882321F190E0FC01E35BFF4FA4914F
:1001B000B0E0865B9F4FFC018491C82FD0E09FB7D1
:1001C000F8948C91662331F4209582238C93888156
:1001D000822308C0623041F4322F309583238C9300
:1001E0008881822B888302C0822B8C939FBFDF91F2
:1001F000CF910895282F30E0F901E25DFF4F9491EF
:10020000F901E75CFF4FE491EE2339F1823019F4F4
:1002100080B78F7304C0833021F480B78F7C80BF98
:100220000AC0843019F48FB58F7304C0853019F477
:100230008FB58F7C8FBDF0E0E65BFF4FA491B0E0FF
:100240002FB7F8948C91662329F4909589238C9389
:100250002FBF0895892B8C932FBF089557D01FDF90
:100260005ADFFECF8EB5887F8EBD8FB58C7F8160C3
:100270008FBD8EB5877E8EBD8EB5887F83608EBD27
:1002800008951F920F920FB60F9211242F933F9350
:100290008F939F93AF93BF93809171009091720061
:1002A000A0917300B091740030917900232F2A59E6
:1002B0002D3720F02D570196A11DB11D20937900F7
:1002C0008093710090937200A0937300B0937400B8
:1002D0008091750090917600A0917700B0917800A0
:1002E0000196A11DB11D8093750090937600A09397
:1002F0007700B0937800BF91AF919F918F913F911C
:100300002F910F900FBE0F901F901895789480B783
:10031000836080BF83B7877F83BF83B7887F836015
:1003200083BF89B7816089BF9DDF86B1876086B949
:10033000379A0895E89409C097FB3EF4909580950C
:10034000709561957F4F8F4F9F4F9923A9F0F92F9B
:1003500096E9BB279395F695879577956795B79519
:10036000F111F8CFFAF4BB0F11F460FF1BC06F5FFF
:100370007F4F8F4F9F4F16C0882311F096E911C011
:10038000772321F09EE8872F762F05C0662371F032
:1003900096E8862F70E060E02AF09A95660F771F46
:1003A000881FDAF7880F9695879597F90895EE0FCD
:0E03B000FF1F0590F491E02D0994F894FFCF03
:0803BE0005000600090007001C
:00000001FF
