:100000000C9485000C94AD000C94AD000C94AD00E4
:100010000C94AD000C94AD000C94AD000C94AD00AC
:100020000C94AD000C94AD000C94AD000C94AD009C
:100030000C94AD000C94AD000C94AD000C94AD008C
:100040000C9491140C94AD000C940D170C9448175B
:100050000C94AD000C94AD000C94AD000C94AD006C
:100060000C94AD000C94AD00202D2D2D3E204C4560
:1000700044204272696768746E6573733A20002089
:100080002D2D2D3E2049676E6F72696E6720706559
:1000900074616C20726973652C20656E64206C65D8
:1000A0006420726973696E673A20000000000700DF
:1000B000020100000304060000000000000000012F
:1000C00002040810204080010204081020010204EC
:1000D00008102004040404040404040202020202BE
:1000E000020303030303030000000023002600298A
:1000F0000000000000250028002B00000000002464
:100100000027002A00008E0E781711241FBECFEFA3
:10011000D8E0DEBFCDBF11E0A0E0B1E0ECE6F4E452
:1001200002C005900D92A239B107D9F723E0A2E9E8
:10013000B1E001C01D92A03CB207E1F711E0CAE0B6
:10014000D1E004C02297FE010E940221C630D107EF
:10015000C9F70E949C160C9434220C940000089558
:100160008F929F92AF92BF92CF92DF92EF92FF92C7
:10017000CF930E94DB1461362AEE72072FEF8207BD
:10018000920748F06B017C0120EAC20E25E1D21EE5
:10019000E11CF11C03C0C12CD12C76018090C80257
:1001A0009090C902A090CA02B090CB028091CC027C
:1001B0009091CD02A091CE02B091CF02C816D9067F
:1001C000EA06FB0660F58091C4029091C502A091F9
:1001D000C602B091C702892B8A2B8B2B11F10E948A
:1001E000DB146D3D25E072078105910538F0DC01D7
:1001F000CB018C5D9540A109B10903C080E090E07E
:10020000DC01C1E04091C4025091C5026091C60278
:100210007091C70284179507A607B70718F0C0E0CA
:1002200001C0C1E0C814D904EA04FB0460F5809160
:10023000C0029091C102A091C202B091C302892B69
:100240008A2B8B2B11F10E94DB146D3D25E0720788
:100250008105910538F0DC01CB018C5D9540A10949
:10026000B10903C080E090E0DC0121E04091C002D0
:100270005091C1026091C2027091C3028417950728
:10028000A607B70718F020E001C021E080919C018B
:1002900090919D01009799F4CC2361F0222319F0ED
:1002A00083E090E002C081E090E090939D01809314
:1002B0009C0114C0222391F082E090E0F6CF0197D8
:1002C000039760F4C111EACF2111F6CF10929D017E
:1002D00010929C011092A1011092A001CF91FF9069
:1002E000EF90DF90CF90BF90AF909F908F90089548
:1002F0004F925F926F927F928F929F92AF92BF9236
:10030000EF92FF920F931F93CF93DF93CDB7DEB79A
:1003100063970FB6F894DEBF0FBECDBF7C0110917E
:10032000D2024090E0025090E1026090E2027090B0
:10033000E302FC01E158FF4F8081918181309105FA
:1003400059F41091D0024090DC025090DD02609090
:10035000DE027090DF0202C0892B11F047E001C07D
:1003600048E023E06CE271E0CE0101960E94201A81
:10037000CE0101960E94721AA12CB12C00E020E05F
:1003800040E0B501CE0101960E94421B2FEFA21A58
:10039000B20A8CE2A81681E0B80681F7CE01019678
:1003A0000E947F1A0E94DB144B015C01612F70E0F8
:1003B00080E090E00E94641F26E636E646E25FE3B6
:1003C0000E94C91E9B01AC0160E070E68AE697E4DA
:1003D0000E94C91E0E949F1F0E94311FAB01662709
:1003E00057FD6095762F440D551D661D771D4815E8
:1003F00059056A057B0538F0CB01BA0168197909FE
:100400008A099B0903C060E070E0CB0121E8E20E9D
:10041000F11C0E94621FAB01BC01C7010E946E1D4E
:1004200040E050E066EA73E4C7010E94741DCE010B
:1004300001960E946A1A63960FB6F894DEBF0FBE4B
:10044000CDBFDF91CF911F910F91FF90EF90BF90A3
:10045000AF909F908F907F906F905F904F90089596
:10046000CF93DF93EC010E947801C158DF4F888160
:100470009981009729F41092100310920F0306C07F
:10048000019721F410920E0310920D03DF91CF918A
:100490000895CF92DF92EF92FF920F931F93CF9325
:1004A000DF93EC016091060170E080E090E00E9433
:1004B000621F6B017C01C358DF4F688170E080E0F0
:1004C00090E00E94621F8701760123EC35EF48EA35
:1004D0005EE30E9430140E949F1F0E94361F862FE9
:1004E0006D3210F06A3608F08BE480930601DF91DC
:1004F000CF911F910F91FF90EF90DF90CF900895D3
:100500004F925F926F927F928F929F92AF92BF9223
:10051000CF92DF92EF92FF920F931F93CF93DF93CF
:10052000CDB7DEB763970FB6F894DEBF0FBECDBF71
:100530007C013B01882777FD8095982F0E94641FDE
:1005400020E030E046E953E40E94C91E5B016C01E3
:1005500020E030E0A9010E94C51E87FF04C0A12C45
:10056000B12C650110C020E030E040E85FE3C60137
:10057000B5010E94C51E87FD06C0A12CB12C40E824
:10058000C42E4FE3D42E4FE7E40EF11CF701808117
:100590009181892B11F448E001C047E023E06CE22F
:1005A00071E0CE0101960E94201AF70180819181AD
:1005B000892B41F028EFE22EFF24FA9488248394BB
:1005C000912C05C0E12CF12C98E0892E912C20E093
:1005D00030E04FE753E4C601B5010E946B200E9452
:1005E000361F162F2DEFA70124032001259F500C45
:1005F00011245701AA0CBB1CAE0CBF1CC12CD12C62
:100600001E141F045CF0B601640D751D6230710587
:1006100044F460E070E08FE793E411C0B5016C1919
:100620007D09882777FD8095982F0E94641F9B0184
:10063000AC0160E070E08FE793E40E94C91E0E9465
:100640009F1F0E94311FC701860D971D062F212F66
:1006500040E0BC01CE0101960E94421B5FEFE51A0B
:10066000F50A83E0C81AD108E814F9044CF2CE0167
:1006700001960E947F1ACE0101960E946A1A639623
:100680000FB6F894DEBF0FBECDBFDF91CF911F91A3
:100690000F91FF90EF90DF90CF90BF90AF909F9021
:1006A0008F907F906F905F904F90089580910F038F
:1006B000909110030197883F2FEF920714F484E381
:1006C00091E09093100380930F0320910F033091DA
:1006D00010038CE291E0821B930B90930E038093A6
:1006E0000D0360910F037091100383E392E00E9469
:1006F000800260910D0370910E0386EA91E00C94E4
:1007000080028091A0019091A101009711F00397C0
:1007100041F540E050E068E474E48DEF92E00E941F
:100720006E1D40E050E06EE973E48DEF92E00E94B0
:10073000741D0E94DB146093070370930803809379
:10074000090390930A0380910F03909110039093F3
:100750000C0380930B0382E090E09093A1018093BF
:10076000A001089520919A0130919B0197FD0CC042
:1007700077FD03C083E090E002C081E090E09093B9
:100780009B0180939A0109C077FD03C082E090E04D
:10079000F6CF10929B0110929A0180919A0190914C
:1007A0009B0182179307D9F02115310549F4409137
:1007B000A0015091A1014330510511F40C94810323
:1007C000039769F4215031092230310540F483E365
:1007D00092E00E94780186EA91E00C9478010895F5
:1007E0004F925F926F927F928F929F92AF92BF9241
:1007F000CF92DF92EF92FF920F931F93CF93DF93ED
:10080000CDB7DEB763970FB6F894DEBF0FBECDBF8E
:100810007C013B01882777FD8095982F0E94641FFB
:1008200020E030E046E953E40E94C91E5B016C0100
:1008300020E030E0A9010E94C51E87FF04C0A12C62
:10084000B12C650110C020E030E040E85FE3C60154
:10085000B5010E94C51E87FD06C0A12CB12CF0E891
:10086000CF2EFFE3DF2E4FE7E40EF11CF70180816E
:100870009181892B11F448E001C047E023E06CE24C
:1008800071E0CE0101960E94201AF70180819181CA
:10089000892B41F078EFE72EFF24FA948824839483
:1008A000912C05C0E12CF12C68E0862E912C20E0E3
:1008B00030E04FE753E4C601B5010E946B200E946F
:1008C000361F162F2DEFA70124032001259F500C62
:1008D00011245701AA0CBB1CAE0CBF1CC12CD12C7F
:1008E0001E141F045CF0B601640D751D62307105A5
:1008F00044F460E070E08FE793E411C0B5016C1937
:100900007D09882777FD8095982F0E94641F9B01A1
:10091000AC0160E070E08FE793E40E94C91E0E9482
:100920009F1F0E94311FC701860D971D062F212F83
:1009300040E0BC01CE0101960E94421B5FEFE51A28
:10094000F50A83E0C81AD108E814F9044CF2CE0184
:1009500001960E947F1ACE0101960E946A1A639640
:100960000FB6F894DEBF0FBECDBFDF91CF911F91C0
:100970000F91FF90EF90DF90CF90BF90AF909F903E
:100980008F907F906F905F904F9008958F929F927D
:10099000AF92BF92CF92DF92EF92FF92CF93DF930D
:1009A0000E94DB14C0900703D0900803E090090375
:1009B000F0900A036C197D098E099F090E94621F3D
:1009C000AB01BC018DEF92E00E947A1D0E94B21E25
:1009D000A0900B03B0900C0320910B0330910C03FB
:1009E000232B79F41092A1011092A001DF91CF91F5
:1009F000FF90EF90DF90CF90BF90AF909F908F903F
:100A000008950E94311F6B017C01CCE3D1E0CA192B
:100A1000DB096C177D0734F780910B0390910C0371
:100A20008C0D9D1D883F2FEF920714F484E391E015
:100A30009093100380930F0320910F0330911003C4
:100A40008CE291E0821B930B90930E0380930D0335
:100A500060910F037091100383E392E00E94F00312
:100A600060910D0370910E0386EA91E00E94F003FD
:100A7000B601882777FD8095982F0E94641F6B012F
:100A80007C01BE01882777FD8095982F0E94641F06
:100A90009B01AC01C701B6010E94C91E6B017C011C
:100AA00020E030E040E051E40E946B200E94311FC2
:100AB0004B015C0183E00E947B15B40186E00E943B
:100AC0007B15A701960160E070E080E89FE30E943B
:100AD0004D1E20E030E04FE753E40E946B200E945F
:100AE000311F85E0DF91CF91FF90EF90DF90CF90A5
:100AF000BF90AF909F908F900C947B152F923F9258
:100B00004F925F926F927F928F929F92AF92BF921D
:100B1000CF92DF92EF92FF920F931F93CF93DF93C9
:100B2000CDB7DEB763970FB6F894DEBF0FBECDBF6B
:100B30005C017B010E94DB14F701E158FF4F20812B
:100B40003181232B49F40091E0021091E1022091C0
:100B5000E2023091E30208C00091DC021091DD0254
:100B60002091DE023091DF022B013C01401A510A34
:100B7000620A730A8FE7A80EB11CF501808191818A
:100B8000892B11F448E001C047E023E06CE271E0FA
:100B9000CE0101960E94201AF50180819181892B56
:100BA00029F400910F031091100304C000910D036C
:100BB00010910E03C301B2010E94621FAB01BC0180
:100BC000C7018F579F4F0E949C1D0E949F1F0E942C
:100BD000311F1B012C017B01F0E1EF1AF1080E150A
:100BE0001F0509F49AC0B0EF8B2E99249A94340112
:100BF000600E711E8CE2681681E0780660F440E0B9
:100C000060E080E00E94821B9B01AC01B301CE0139
:100C100001960E94631B9FEF891A990AE0E18E16E4
:100C2000910429F7F50180819181009769F4F09290
:100C30001003E0920F036101F0E2CF1AD10800EF38
:100C40001FEFAAE09A2E07C00197A9F7F0920E03B2
:100C5000E0920D03F0CF8CE2C81681E0D80608F0D0
:100C60004EC0B80117FF04C066277727601B710BC1
:100C7000643071058CF062507109882777FD80958A
:100C8000982F0E94641F9B01AC0160E070E08FE729
:100C900093E40E94C91E04C060E070E08FE793E413
:100CA0000E949F1F0E94311F562F862F20919C016A
:100CB00030919D01F9013197329718F440E0652F8A
:100CC00011C02330310589F4F50120813181232BB6
:100CD00031F4692D0E94D220452F60E003C0452FDA
:100CE00060E0852F0E94821B03C060E070E0CB01B2
:100CF0009B01AC01B601CE0101960E94631B0F5F00
:100D00001F4FFFEFCF1ADF0A0031110509F0A3CF03
:100D1000CE0101960E947F1A8701CE0101960E94A2
:100D20006A1A81E00C3211400CF480E063960FB631
:100D3000F894DEBF0FBECDBFDF91CF911F910F9111
:100D4000FF90EF90DF90CF90BF90AF909F908F90EB
:100D50007F906F905F904F903F902F9008958F926B
:100D60009F92AF92BF92CF92DF92EF92FF920E943A
:100D7000DB146B017C018091F5029091F602A09149
:100D8000F702B091F802C816D906EA06FB06E0F4AD
:100D90006FE770E08AE193E00E9408184091F50245
:100DA0005091F6026091F7027091F8022AE030E06B
:100DB0008AE193E0FF90EF90DF90CF90BF90AF90EB
:100DC0009F908F900C9411198091ED029091EE02FA
:100DD000A091EF02B091F002C816D906EA06FB0610
:100DE00008F055C08C199D09BC01882777FD8095B6
:100DF000982F0E94641F9B01AC0160E070E884E5BD
:100E000094E40E944D1E20E030E844E554E40E9442
:100E1000C91E4B015C0120E030E0A9010E9467205F
:100E20001816ECF5C701B6010E94621F6B017C0128
:100E3000A501940160E070E080E89FE30E944D1EF0
:100E400020E030E04FEA53E40E946B209B01AC01AC
:100E5000C701B6010E944D1E0E94361F6093F90221
:100E60007093FA028093FB029093FC021092F102BD
:100E70001092F2021092F3021092F4021092ED021C
:100E80001092EE021092EF021092F00208C0C0928F
:100E9000F902D092FA02E092FB02F092FC028091F9
:100EA000F9029091FA02A091FB02B091FC02825AE1
:100EB0009E4FAF4FBF4F8093F5029093F602A093E1
:100EC000F702B093F802FF90EF90DF90CF90BF90C1
:100ED000AF909F908F9008954F925F926F927F9204
:100EE0008F929F92AF92BF92CF92DF92EF92FF923A
:100EF000CF930E94DB148090F5029090F602A090B0
:100F0000F702B090F80286169706A806B90628F0F0
:100F1000861A970AA80AB90A03C0812C912C540199
:100F2000C090F902D090FA02E090FB02F090FC022F
:100F30009B01AC012C193D094E095F0969017A0139
:100F4000CA01B9010E94621F2B013C01C501B40115
:100F50006C0D7D1D8E1D9F1D0E94621F9B01AC01AB
:100F6000C301B2010E94C91E6B017C0120E030E088
:100F70004FE753E40E946B200E949F1F0E94311F85
:100F8000683071053CF06F3F710529F024F06FEF78
:100F900070E001C068E06093E40280919C01909150
:100FA0009D010397C9F4683071F468E670E08AE146
:100FB00093E00E9408184AE050E06091E4028AE160
:100FC00093E00E94FA186091E40270E083E00E94CE
:100FD0007B156091E40207C070E083E00E947B15FE
:100FE0006091E402669570E086E00E947B1560E007
:100FF00070E085E00E947B15C1E020E030E040E831
:101000005FE3C701B6010E94672087FDC0E08C2F17
:10101000CF91FF90EF90DF90CF90BF90AF909F90D7
:101020008F907F906F905F904F9008950F931F93D4
:101030000E94DB148B019C01045C1F4F2F4F3F4F1C
:101040000093F1021093F2022093F3023093F40222
:10105000DC01CB0186539C4FAF4FBF4F8093ED0215
:101060009093EE02A093EF02B093F0021F910F91C4
:1010700008954F925F926F927F928F929F92AF925C
:10108000BF92CF92DF92EF92FF920F931F930E9435
:10109000DB140091F1021091F2022091F3023091E1
:1010A000F402601771078207930708F46DC08090FF
:1010B000ED029090EE02A090EF02B090F002861642
:1010C0009706A806B90628F0861A970AA80AB90A48
:1010D00003C0812C912C54016B017C01C01AD10AF0
:1010E000E20AF30AC701B6010E94621F2B013C010C
:1010F000C501B4016C0D7D1D8E1D9F1D0E94621FD8
:101100009B01AC01C301B2010E94C91E6B017C01AD
:1011100020E030E04FE753E40E946B200E949F1FC5
:101120000E94311F2FEF30E0261B370B283031058E
:1011300014F428E030E02093E40280919C01909127
:101140009D01B9017727039731F483E00E947B1555
:101150006091E40206C083E00E947B156091E40286
:10116000669570E086E00E947B1560E070E085E0A7
:101170000E947B1511E020E030E040E85FE3C7010A
:10118000B6010E94672087FD10E0812F1F910F910B
:10119000FF90EF90DF90CF90BF90AF909F908F9097
:1011A0007F906F905F904F9008950F931F930E94D0
:1011B000DB148B019C01045C1F4F2F4F3F4F0093AA
:1011C000E9021093EA022093EB023093EC02DC0177
:1011D000CB0186539C4FAF4FBF4F8093E502909356
:1011E000E602A093E702B093E80286E090E09093D5
:1011F0009F0180939E011F910F9108958091A001FE
:101200009091A1010097C1F483E392E00E94300223
:1012100086EA91E00E94300284E391E0909310030B
:1012200080930F0383E090E09093A1018093A0014D
:101230000E9456030C94D508039711F40C9456039E
:1012400008954F925F926F927F928F929F92AF928A
:10125000BF92CF92DF92EF92FF92CF930E94DB1466
:101260008090E5029090E602A090E702B090E8023C
:1012700086169706A806B90628F0861A970AA80ABD
:10128000B90A03C0812C912C5401C090E902D0907E
:10129000EA02E090EB02F090EC026C157D058E0501
:1012A0009F0508F44EC09B01AC012C193D094E0965
:1012B0005F0969017A01CA01B9010E94621F2B010D
:1012C0003C01C501B4016C0D7D1D8E1D9F1D0E944A
:1012D000621F9B01AC01C301B2010E94C91E6B01D8
:1012E0007C019B01AC0160E070E080E89FE30E941C
:1012F0004D1E20E030E040E051E40E946B200E944F
:10130000311F4B015C0183E00E947B15B40186E034
:101310000E947B1520E030E04FE753E4C701B6019F
:101320000E946B200E94311F85E00E947B15C1E066
:1013300020E030E040E85FE3C701B6010E9467208B
:1013400087FDC0E08C2FCF91FF90EF90DF90CF9082
:10135000BF90AF909F908F907F906F905F904F90D5
:1013600008954F925F926F927F92AF92BF92CF9209
:10137000DF92EF92FF920F931F93CF93DF938091B1
:10138000E0029091E102A091E202B091E302892B88
:101390008A2B8B2B89F0C090D802D090D902E09094
:1013A000DA02F090DB020E94DB14AA24A394C61692
:1013B000D706E806F90608F0A12C8091DC0290918E
:1013C000DD02A091DE02B091DF02892B8A2B8B2BEC
:1013D00089F0C090D402D090D502E090D602F0906F
:1013E000D7020E94DB14BB24B394C616D706E806C6
:1013F000F90608F0B12C83E392E00E94570FEC014C
:1014000086EA91E00E94570F8C018091A001909193
:10141000A101029781F4DF91CF911F910F91FF906D
:10142000EF90DF90CF90BF90AF907F906F905F90E4
:101430004F900C94C60480919C0190919D01892B42
:10144000E1F51092E0021092E1021092E202109295
:10145000E3021092DC021092DD021092DE02109282
:10146000DF021092D8021092D9021092DA02109282
:10147000DB021092D4021092D5021092D602109282
:10148000D7021092A5011092A4011092A30110920C
:10149000A20180919A0190919B01892B71F40E9485
:1014A000FE0880919E0190919F01892B31F086E08A
:1014B00090E090939F0180939E011C161D060CF0F6
:1014C0008FC083E392E00E94490290E09093D302A0
:1014D0008093D2028091E0029091E102A091E20219
:1014E000B091E302892B8A2B8B2B49F10E94DB14EC
:1014F0004090E0025090E1026090E2027090E302BE
:1015000064197509860997090E94621F6B017C01A5
:101510006091D8027091D9028091DA029091DB0239
:1015200064197509860997090E94621F9B01AC0125
:10153000C701B6010E94C91E6B017C0106C0C12C07
:10154000D12C90E8E92E9FE3F92E0E94DB146093E2
:10155000CC027093CD028093CE029093CF0223E30E
:1015600033E343EB5EE3C701B6010E946720181620
:10157000ACF168E071E08AE193E00E942D1822E06E
:1015800030E0B701A6018AE193E00E940E1A0E94A2
:10159000DB140E94621F6B017C016091D20270918A
:1015A000D30280E090E00E94621F9B01AC0160E0EA
:1015B00070E68AE697E40E94C91E9B01AC01C70150
:1015C000B6010E944E1E0E94361F6093D80270938F
:1015D000D9028093DA029093DB0202C0AA24A3947A
:1015E000101611060CF08FC08091DC029091DD0284
:1015F000A091DE02B091DF02892B8A2B8B2B49F15F
:101600000E94DB144090DC025090DD026090DE020C
:101610007090DF0264197509860997090E94621F9C
:101620006B017C016091D4027091D5028091D60249
:101630009091D70264197509860997090E94621F63
:101640009B01AC01C701B6010E94C91E6B017C0160
:1016500006C0C12CD12C80E8E82E8FE3F82E0E9422
:10166000DB146093C8027093C9028093CA029093FE
:10167000CB0286EA91E00E94490290E09093D10269
:101680008093D00223E333E343EB5EE3C701B6016B
:101690000E9467201816ACF169E271E08AE193E0DC
:1016A0000E942D1822E030E0B701A6018AE193E004
:1016B0000E940E1A0E94DB140E94621F6B017C01C3
:1016C0006091D0027091D10280E090E00E94621F90
:1016D0009B01AC0160E070E68AE697E40E94C91EB7
:1016E0009B01AC01C701B6010E944E1E0E94361F2D
:1016F0006093D4027093D5028093D6029093D70260
:1017000002C0BB24B394D7FF12C01092E002109223
:10171000E1021092E2021092E3021092D8021092BB
:10172000D9021092DA021092DB02A12C0AC00E94A8
:10173000DB146093C4027093C5028093C602909339
:10174000C70217FF12C01092DC021092DD02109245
:10175000DE021092DF021092D4021092D502109293
:10176000D6021092D702B12C0AC00E94DB146093FB
:10177000C0027093C1028093C2029093C302AA2058
:1017800009F458C00E94DB146093E0027093E102F8
:101790008093E2029093E3020E94621F6B017C013E
:1017A0006091D2027091D30280E090E00E94621FAB
:1017B0009B01AC0160E070E68AE697E40E94C91ED6
:1017C0009B01AC01C701B6010E944E1E0E94361F4C
:1017D0006093D8027093D9028093DA029093DB026F
:1017E0008091A4019091A501029771F480919E01CE
:1017F00090919F01049741F084E090E090939F01C5
:1018000080939E010E94AF0682E090E09093A50134
:101810008093A40183E392E00E94300280919C01B6
:1018200090919D01019709F04DC086EA91E00E94D8
:10183000300248C02091A4013091A50180919C0103
:1018400090919D012230310551F082309105D1F502
:101850002091A2013091A3012230310599F5029720
:1018600019F466EA71E002C063E372E083E392E098
:101870000E947E05882331F18091A4019091A501F9
:10188000029701F51092A5011092A40183E392E062
:101890000E94300280919C0190919D01019721F45A
:1018A00086EA91E00E94300280919E0190919F0112
:1018B000049741F084E090E090939F0180939E0113
:1018C0000E94AF06BB2009F458C00E94DB1460934D
:1018D000DC027093DD028093DE029093DF020E94AF
:1018E000621F6B017C016091D0027091D10280E097
:1018F00090E00E94621F9B01AC0160E070E68AE606
:1019000097E40E94C91E9B01AC01C701B6010E9469
:101910004E1E0E94361F6093D4027093D5028093AE
:10192000D6029093D7028091A2019091A3010297D1
:1019300071F480919E0190919F01049741F084E0A1
:1019400090E090939F0180939E010E94AF0682E0F9
:1019500090E09093A3018093A20186EA91E00E9417
:10196000300280919C0190919D01029709F04DC039
:1019700083E392E00E94300248C02091A20130919E
:10198000A30180919C0190919D012230310551F07D
:1019900081309105D1F52091A4013091A50122302B
:1019A000310599F5019719F463E372E002C066EA24
:1019B00071E086EA91E00E947E05882331F18091F2
:1019C000A2019091A301029701F51092A301109238
:1019D000A20180919C0190919D01029721F483E3E3
:1019E00092E00E94300286EA91E00E9430028091EB
:1019F0009E0190919F01049741F084E090E09093C4
:101A00009F0180939E010E94AF0680919E0190915C
:101A10009F018630910551F40E942109882309F421
:101A20004EC010929F0110929E0149C084309105D2
:101A300031F50E946C07882309F441C08091A4010C
:101A40009091A501049731F485E090E09093A50171
:101A50008093A4018091A2019091A301049731F495
:101A600085E090E09093A3018093A20185E090E04F
:101A700090939F0180939E010E94160820C00597B5
:101A8000F1F40E9439088823D1F08091A40190914B
:101A9000A501059721F41092A5011092A40180914F
:101AA000A2019091A301059721F41092A301109235
:101AB000A20181E090E090939F0180939E010E949B
:101AC000B000B801CE01DF91CF911F910F91FF902F
:101AD000EF90DF90CF90BF90AF907F906F905F902E
:101AE0004F900C94B2030F931F930E94DB1400914C
:101AF0009601109197012091980130919901601BF6
:101B0000710B820B930B693E734081059105E8F0E0
:101B10000E94DB1460939601709397018093980163
:101B2000909399018091920190919301A0919401D9
:101B3000B09195010196A11DB11D809392019093E2
:101B40009301A0939401B09395011F910F91089573
:101B5000CF93DF9380E00E94781561E083E00E94DC
:101B6000031661E086E00E94031661E085E00E94B2
:101B7000031661E089E00E94031660E070E083E0F4
:101B80000E947B1560E070E086E00E947B1560E0BB
:101B900070E085E00E947B1560E070E089E00E94C3
:101BA0007B151092A5011092A4011092A30110922E
:101BB000A20110929F0110929E011092A101109219
:101BC000A00110929D0110929C0110929B01109215
:101BD0009A0162E370E080E090E00E940A150E94A2
:101BE000730D61E088E00E94031660E088E00E94C7
:101BF0003C1661E087E00E94031660E087E00E94E7
:101C00003C1683E392E00E94780186EA91E00E940C
:101C100078011092B3021092B20281E090E09093AA
:101C200026028093250283E392E00E94D70E86EA83
:101C300091E00E94D70EC0E0D0E0BE0183E00E9498
:101C40007B1561E070E080E090E00E940A1521962B
:101C5000CF3FD10591F7CFEFD0E0BE0183E00E94E6
:101C60007B1561E070E080E090E00E940A1521970A
:101C7000209799F7C0E0D0E0BE0186E00E947B1576
:101C800061E070E080E090E00E940A152196CF3F6D
:101C9000D10591F7CFEFD0E0BE0186E00E947B1521
:101CA00061E070E080E090E00E940A1521972097A3
:101CB00099F7C0E0D0E0BE0185E00E947B1561E0AD
:101CC00070E080E090E00E940A152196CF3FD10598
:101CD00091F7CFEFD0E0BE0185E00E947B1561E077
:101CE00070E080E090E00E940A152197209799F714
:101CF00060E070E083E00E947B1560E070E086E0C9
:101D00000E947B156FEF70E085E00E947B1560E01C
:101D100070E089E0DF91CF910C947B151F93CF93F6
:101D2000DF938DEF92E00E94641DCCE8D1E0D09368
:101D3000FE02C093FD028091060190E09093D302D1
:101D40008093D2029093D1028093D00241E060E070
:101D50008EEB92E00E94CE1B8EEB92E090933402C9
:101D60008093330214EB1093350284EB92E00E94CF
:101D7000641DD093B502C093B40241E06EE081E3EC
:101D800092E00E94CE1B81E392E09093A7018093A2
:101D9000A6011093A80187E292E00E94641DD093EF
:101DA0002802C0932702DF91CF911F910895CF930E
:101DB000DF93EC0147E167E00E94471C43E063E0EA
:101DC000CE010E94471C40E164E0CE010E94471C06
:101DD00041E066E0CE010E94471C44E868E0CE0185
:101DE0000E94471C48E069E0CE010E94471C48E081
:101DF0006AE0CE010E94471C49E36FE0CE010E94D9
:101E0000471C43E060E1CE010E94471C6AE471E098
:101E10008AE193E00E942D186FE0CE010E94E51C3C
:101E200042E050E0682F8AE193E00E94FA1866E5EC
:101E300071E08AE193E00E942D1861E0CE010E94DA
:101E4000141D42E050E0682F8AE193E00E94FA18E6
:101E500047E761E0CE010E94711C40E06BE0CE01DB
:101E60000E94711C41E262E0CE010E94711C44E0BC
:101E700063E0CE010E94711C43E067E0CE010E9446
:101E8000711C43E068E0CE010E94711C43E069E0F0
:101E9000CE010E94711C40E76AE0CE010E94711CD5
:101EA0004FE068E1CE01DF91CF910C94471C2F9257
:101EB0003F924F925F926F927F928F929F92AF92DA
:101EC000BF92CF92DF92EF92FF920F931F93CF9327
:101ED000DF93CDB7DEB760970FB6F894DEBF0FBEC5
:101EE000CDBF988B8F878C01035C1F4FF8018081D9
:101EF0009181A281B381892B8A2B8B2B39F40E948B
:101F0000DB14F80160837183828393838F859889C2
:101F10008F5B9F4F9E838D83FC0180819181A28185
:101F2000B381892B8A2B8B2B41F40E94DB14ED812A
:101F3000FE8160837183828393830F8518890B5B95
:101F40001F4FF80180819181A281B381892B8A2B57
:101F50008B2B39F40E94DB14F80160837183828338
:101F600093838F859889875B9F4F98878F83FC0128
:101F700080819181A281B381892B8A2B8B2B41F4A3
:101F80000E94DB14EF81F8856083718382839383E1
:101F90002F843888F9E62F0E311CF101108211824E
:101FA00012821382AF85B889A359BF4F1D921D922B
:101FB0001D921C9213978F8598898F589F4FFC0113
:101FC000108211821282138203E010E03A82298289
:101FD000BC83AB839A8789878F8598890E94371D38
:101FE000EF85F88921853285E981FA8160817181E7
:101FF00082819381620F731F811D911D60837183A4
:1020000082839383EF85F88923853485EB81FC8176
:1020100080809180A280B380820E931EA11CB11C8F
:1020200080829182A282B382EF85F88925853685E8
:10203000E985FA85C080D180E280F380C20ED31E8C
:10204000E11CF11CC082D182E282F38201501109AD
:102050000115110509F623E030E040E050E00E9450
:10206000DE2029013A01E981FA812083318342830C
:102070005383C501B40123E030E040E050E00E940A
:10208000DE2049015A01EB81FC81208331834283A8
:102090005383C701B60123E030E040E050E00E94E6
:1020A000DE20E985FA852083318342835383DA0178
:1020B000C901880D991DAA1DBB1D6C017D01C40CB1
:1020C000D51CE61CF71CEF85F88981AF92AFA3AF52
:1020D000B4AF452846284728B1F489288A288B2898
:1020E00091F4232B242B252B71F464EF71E080E015
:1020F00090E00E940A1564E670E080E090E00E94A3
:102100000A150C940000F10180819181A281B381B4
:10211000EF85F889E359FF4F4081518162817381D6
:1021200084179507A607B70781F4EF85F889EF585C
:10213000FF4F408151816281738184179507A60703
:10214000B70719F40FEF1FEF71C3EF85F88985A961
:1021500096A9A7A9B0AD80349C49A105B10568F442
:1021600021E4C2162CE9D206E104F10430F081E04A
:1021700090E0EF85F889948B838BEF85F889C5AA69
:10218000D6AAE7AAF0AE8389948901968A3191058F
:1021900024F089E190E0EF85F889948B838BEF85BB
:1021A000F8898389948944978CF48F01035B1F4FCE
:1021B000C701B601685C7109810991090E94621F1B
:1021C000F80160837183828393830FC0F0E3CF169D
:1021D000F5E7DF06E104F10408F4B4CF21E4C21608
:1021E0002CE9D206E104F10418F400E010E01EC36B
:1021F0008F859889835B9F4F9A838983FC01C08078
:10220000D180E280F380EF85F88961AD72AD83AD56
:1022100094AD0E94621F8701760124EA30E74DE702
:102220005FE30E9430149B01AC01E981FA81608375
:10223000718382839383CF84D888F5E5CF0ED11C38
:10224000F6014080518062807380EF85F88961AD2E
:1022500072AD83AD94AD2B873C874D875E870E941E
:10226000621F2B853C854D855E850E944D1E830136
:1022700072012DEC3CEC4CE45EE30E943014F6015C
:102280006083718382839383AF84B888F1E5AF0E56
:10229000B11CF5014080518062807380F101608142
:1022A0007181828193810E94621F8301720124EAFD
:1022B00030E74DE75FE30E943014F50160837183DE
:1022C00082839383EF85F88981A092A0A3A0B4A014
:1022D000C501B4010E94641F2B013C01F101608122
:1022E000718182819381681979098A099B090E9409
:1022F000621F830172012DEC3CEC4CE45EE30E9412
:1023000030140E94311FEF85F88961A372A383A363
:1023100094A3E75AFF4FFC83EB83AF84B888F5E6BC
:10232000AF0EB11CF5012081318142815381F6014C
:1023300060817181828193810E944E1EEB81FC81BC
:1023400060837183828393836F847888F1E66F0E54
:10235000711CF3012080318042805380EF85F88921
:1023600061AD72AD83AD94AD0E94621FE981FA81C7
:1023700020813181428153810E944D1E8201710171
:1023800023E333E343E75FE30E9430141B012C0196
:10239000F30160837183828393838F849888FDE542
:1023A0008F0E911C60E070E0CB010E94641F2DEC49
:1023B0003CEC4CE45DE30E946B209B01AC01C2014C
:1023C000B1010E944D1EF401608371838283938367
:1023D000EF85F88963A574A56115710589F08827D3
:1023E00077FD8095982F0E94641F9B01AC01F60138
:1023F00060817181828193810E94672018165CF44C
:10240000F60160817181828193810E94311FEF8585
:10241000F88974A763A7EF85F88981A192A1A3A188
:10242000B4A1458D568D678D70A1481759076A076D
:102430007B0724F4858F968FA78FB0A30E94DB14AF
:10244000EF81F8850081118122813381601B710B3E
:10245000820B930B693077408105910508F453C0D6
:10246000EF85F88965A576A5882777FD8095982F53
:102470000E94641F2B013C01EF85F88983A594A578
:10248000BC01882777FD8095982F0E94641F8301E7
:1024900072012AE939E949E15FE30E9430140E94A0
:1024A000311FEF85F88976A765A714A613A665A145
:1024B00076A187A190A50E94641F2B013C01EF85A6
:1024C000F889658D768D878D90A10E94641F8301A8
:1024D00072012AE939E949E15FE30E9430140E9460
:1024E000311FEF85F88965A376A387A390A7158E82
:1024F000168E178E10A20E94DB14EF81F885608380
:10250000718382839383EF85F88961A572A5611534
:10251000710589F0882777FD8095982F0E94641FA8
:102520009B01AC01F60160817181828193810E94DF
:10253000C51E87FF0BC0F601608171818281938186
:102540000E94311FEF85F88972A761A7EF85F8898E
:1025500081A192A1A3A1B4A1418D528D638D748DEF
:1025600084179507A607B70724F4818F928FA38F4E
:10257000B48F0E94DB14ED81FE81008111812281E4
:102580003381601B710B820B930B6930774081059F
:10259000910570F1EF85F88967A570A9882777FD07
:1025A0008095982F0E94641F6B017C01EF85F8894C
:1025B00061A572A5882777FD8095982F0E94641FDA
:1025C000870176012AE939E949E15FE30E94301485
:1025D0000E94311FEF85F88970AB67A712A611A67C
:1025E0000E94DB14ED81FE8160837183828393837B
:1025F000C12CD12C8CE0E82E82E4F82EF501C082AB
:10260000D182E282F382F4012081318142815381BF
:10261000EB81FC8160817181828193810E94C51E62
:10262000EF85F88921A932A987FF6AC034AB23ABB3
:1026300081E090E092AB81ABF7FAF094F7F8F09478
:10264000F501C082D182E282F382EF85F88967A525
:1026500070A9882777FD8095982F0E94641F6B01D1
:102660007C01EF85F88961A572A5882777FD8095A3
:10267000982F0E94641F8701760124EA30E74DE716
:102680005FE30E9430140E94311FEF85F88970AB20
:1026900067A78FEF9FE792A781A76789708D88272B
:1026A00077FD8095982F0E94641F6B017C01EF8558
:1026B000F889618D728D838D948D0E94641F8701CE
:1026C000760124EA30E74DE75FE30E9430140E9470
:1026D000311FEF85F889708F678B25A136A1261BE6
:1026E000370B368B258B8FEF9FE7A0E0B0E0818F13
:1026F000928FA38FB48F0E94DB14ED81FE8152C0B4
:10270000EF85F88934AB23AB12AA11AA65A576A58B
:10271000882777FD8095982F0E94641F6B017C01AC
:10272000EF85F88963A574A5882777FD8095982F94
:102730000E94641F8701760124EA30E74DE75FE3DA
:102740000E9430140E94311FEF85F88976A765A793
:1027500014A613A665A176A187A190A50E94641F67
:102760006B017C01EF85F889658D768D878D90A151
:102770000E94641F8701760124EA30E74DE75FE39A
:102780000E9430140E94311FEF85F88965A376A35B
:1027900087A390A7158E168E178E10A20E94DB14A9
:1027A000EF81F8856083718382839383EF85F88955
:1027B00083A994A9892B09F018CD01A912A9013088
:1027C000110509F012CD7F01F9E7EF0EF11CCF845E
:1027D000D88825E7C20ED11CF60180819181A281A3
:1027E000B381F70180839183A283B3830E94DB14BA
:1027F000F6016083718382839383AF84B888FDE799
:10280000AF0EB11CF701C080D180E280F3809B0144
:10281000AC012C193D094E095F0960E67AEE80E0B3
:1028200090E00E94DE20F50131832083C80160968C
:102830000FB6F894DEBF0FBECDBFDF91CF911F91D1
:102840000F91FF90EF90DF90CF90BF90AF909F904F
:102850008F907F906F905F904F903F902F90089552
:102860004F925F926F927F928F929F92AF92BF92A0
:10287000CF92DF92EF92FF920F931F932B013C01B7
:1028800049015A016701780120E030E040E85FE348
:10289000C501B4010E946720181694F020E030E0D2
:1028A000A901C501B4010E94C51E18168CF08AE06A
:1028B000882E87ED982E83E2A82E8CE3B82E08C0D0
:1028C00094EA892E90E7992E9DE7A92E9FE3B92ED1
:1028D000A5019401C701B6010E946B206B017C0128
:1028E000A501940160E070E080E89FE30E944D1E26
:1028F0009B01AC01C301B2010E946B20A7019601AC
:102900000E944E1E1F910F91FF90EF90DF90CF908D
:10291000BF90AF909F908F907F906F905F904F90FF
:1029200008951F920F920FB60F9211242F933F9389
:102930008F939F93AF93BF93809112039091130352
:10294000A0911403B09115033091110323E0230FDC
:102950002D3720F40196A11DB11D05C026E8230FD7
:102960000296A11DB11D2093110380931203909331
:102970001303A0931403B093150380911603909151
:102980001703A0911803B09119030196A11DB11D61
:102990008093160390931703A0931803B093190321
:1029A000BF91AF919F918F913F912F910F900FBE4B
:1029B0000F901F9018952FB7F894609112037091A3
:1029C000130380911403909115032FBF08953FB70F
:1029D000F8948091160390911703A0911803B09179
:1029E000190326B5A89B05C02F3F19F00196A11D1C
:1029F000B11D3FBF6627782F892F9A2F620F711D57
:102A0000811D911D42E0660F771F881F991F4A950F
:102A1000D1F70895CF92DF92EF92FF92CF93DF9399
:102A20006B017C010E94E714EB01C114D104E104A5
:102A3000F10489F00E949B160E94E7146C1B7D0B29
:102A4000683E734090F381E0C81AD108E108F108AC
:102A5000C851DC4FEACFDF91CF91FF90EF90DF902C
:102A6000CF9008950197009739F0880F991F880F2C
:102A7000991F02970197F1F70895789484B58260C1
:102A800084BD84B5816084BD85B5826085BD85B512
:102A9000816085BDEEE6F0E0808181608083E1E8C1
:102AA000F0E01082808182608083808181608083F9
:102AB000E0E8F0E0808181608083E1EBF0E08081FC
:102AC00084608083E0EBF0E0808181608083EAE7CE
:102AD000F0E0808184608083808182608083808157
:102AE000816080838081806880831092C100089516
:102AF0008093070108951F93CF93DF93182FEB0165
:102B000061E00E940316209711F460E004C0CF3FFB
:102B1000D10539F461E0812FDF91CF911F910C94A1
:102B20003C16E12FF0E0E555FF4FE491E330F9F07A
:102B300048F4E130B9F0E230A1F584B5806284BD9B
:102B4000C8BD34C0E630E9F0E73019F1E43049F5AA
:102B500080918000806280938000D0938B00C0932E
:102B60008A0024C084B5806884BDC7BD1FC0809121
:102B70008000806880938000D0938900C093880093
:102B800015C08091B00080688093B000C093B300FE
:102B90000DC08091B00080628093B000C093B400FB
:102BA00005C0C038D1050CF0B5CFAFCFDF91CF91C4
:102BB0001F910895833081F028F4813099F082309C
:102BC000A1F008958630A9F08730B9F08430D1F4AF
:102BD000809180008F7D03C0809180008F778093EB
:102BE0008000089584B58F7702C084B58F7D84BD41
:102BF00008958091B0008F7703C08091B0008F7DE1
:102C00008093B0000895CF93DF9390E0FC01E154EE
:102C1000FF4F2491FC01ED52FF4F8491882349F12D
:102C200090E0880F991FFC01E550FF4FA591B491EA
:102C30008F509F4FFC01C591D4919FB7611108C07F
:102C4000F8948C91209582238C93888182230AC0EA
:102C5000623051F4F8948C91322F309583238C9309
:102C60008881822B888304C0F8948C91822B8C936A
:102C70009FBFDF91CF9108950F931F93CF93DF9361
:102C80001F92CDB7DEB7282F30E0F901E555FF4F91
:102C90008491F901E154FF4F1491F901ED52FF4F76
:102CA00004910023C9F0882321F069830E94DA157A
:102CB0006981E02FF0E0EE0FFF1FEF50FF4FA5916D
:102CC000B4919FB7F8948C91611103C01095812342
:102CD00001C0812B8C939FBF0F90DF91CF911F91EB
:102CE0000F910895CF93DF93282F30E0F901E55538
:102CF000FF4F8491F901E154FF4FD491F901ED5256
:102D0000FF4FC491CC2391F081110E94DA15EC2F72
:102D1000F0E0EE0FFF1FE951FF4FA591B4912C9108
:102D20002D2381E090E021F480E002C080E090E07B
:102D3000DF91CF91089508950E943D150E94A80D3E
:102D4000CFE3D7E10E94B1092097E1F30E943F173A
:102D5000F9CFFC01868D278D90E0805C9F4F821B10
:102D600091098F7399270895FC01968D878D981787
:102D700031F0878DE80FF11D82A190E008958FEF6B
:102D80009FEF0895FC01968D878D981761F0878DD0
:102D9000DF01A80FB11D92968C91978D9F5F9F7355
:102DA000978F90E008958FEF9FEF0895FC01858D38
:102DB000882329F0A089B1898C9186FFFBCF158EDD
:102DC0000895FC0180A190E001968F73992721A1BD
:102DD00030E082179307D9F390A1DF01A90FB11D4D
:102DE000AE59BF4F6C9380A3A289B3892C9181E027
:102DF00090E0038C02C0880F991F0A94E2F7282BF9
:102E00002C9381E0858F0088F189E02D808180649A
:102E1000808381E090E0089508951F920F920FB68D
:102E20000F9211242F933F934F938F939F93EF9380
:102E3000FF938091C00082FD16C04091C600809132
:102E4000380390E001968F7399272091390330E081
:102E50008217930741F0E0913803F0E0E65EFC4F03
:102E600042A380933803FF91EF919F918F914F91EF
:102E70003F912F910F900FBE0F901F9018958AE1F0
:102E800093E00E94A916892B11F00C940C17089559
:102E90001F920F920FB60F9211242F938F939F932F
:102EA000EF93FF9390913A0380913B03981306C0F0
:102EB0008091C1008F7D8093C10010C0E0913B03E1
:102EC000F0E0E458FC4F208180913B0390E00196B4
:102ED0008F73992780933B032093C600FF91EF9156
:102EE0009F918F912F910F900FBE0F901F9018956B
:102EF00010921D0310921C0388EE93E0A0E0B0E056
:102F000080931E0390931F03A0932003B09321038B
:102F100084E691E090931B0380931A0310923B0385
:102F200010923A03109239031092380385EC90E026
:102F3000909327038093260384EC90E090932903D9
:102F40008093280380EC90E090932B0380932A03D6
:102F500081EC90E090932D0380932C0382EC90E021
:102F600090932F0380932E0386EC90E0909331038F
:102F70008093300384E08093320383E080933303B3
:102F800087E08093340385E08093350381E080936C
:102F900036030895CF92DF92EF92FF920F931F9323
:102FA000CF93DF936C017A01EB01E60EF71E00E090
:102FB00010E0CE15DF0561F06991D601ED91FC912D
:102FC0000190F081E02DC6010995080F191FF1CF7E
:102FD000C801DF91CF911F910F91FF90EF90DF908B
:102FE000CF9008956115710581F0DB010D900020EF
:102FF000E9F7AD0141505109461B570BDC01ED913A
:10300000FC910280F381E02D099480E090E0089526
:10301000EF92FF920F931F93CF93DF938C01FB01ED
:10302000C0E0D0E064917F018FEFE81AF80A6623D0
:1030300061F0D801ED91FC910190F081E02DC80183
:103040000995C80FD91FF701EDCFCE01DF91CF91C0
:103050001F910F91FF90EF9008950C94F217DC01EF
:10306000ED91FC910190F081E02D09940F931F9355
:10307000CF93DF93EC016DE00E942F188C016AE082
:10308000CE010E942F18800F911FDF91CF911F91C9
:103090000F9108958F929F92AF92BF92CF92DF923D
:1030A000EF92FF920F931F93CF93DF93CDB7DEB7CD
:1030B000A1970FB6F894DEBF0FBECDBF7C01C42E22
:1030C000E52FCB01D22E19A221E02D1510F02AE018
:1030D000D22E8E010F5D1F4F8D2C912CA12CB12C67
:1030E0006C2D7E2FA50194010E94DE208C2DD29E96
:1030F00080191124015011098A3014F4805D01C037
:10310000895CF8018083211531054105510521F0C5
:10311000C22EE32FCA01E4CFB801C7010E94F21703
:10312000A1960FB6F894DEBF0FBECDBFDF91CF9151
:103130001F910F91FF90EF90DF90CF90BF90AF90D5
:103140009F908F900895CF92DF92EF92FF920F930E
:103150001F93CF93DF93EC016A017B0121153105A9
:1031600079F4E881F9810190F081E02D642FDF91FD
:10317000CF911F910F91FF90EF90DF90CF90099426
:103180002A303105E9F477FF1AC06DE20E942F184A
:103190008C0144275527BA014C195D096E097F0936
:1031A0002AE0CE010E944A18800F911FDF91CF9133
:1031B0001F910F91FF90EF90DF90CF9008952AE03C
:1031C000B701A601CE01DF91CF911F910F91FF9022
:1031D000EF90DF90CF900C944A182115310541F4FF
:1031E000DC01ED91FC910190F081E02D642F0994B8
:1031F0000C944A180F931F93CF93DF93EC019A011D
:10320000462F50E060E070E00E94ED188C01CE0186
:103210000E943618800F911FDF91CF911F910F915F
:1032200008950F931F93CF93DF93EC010E94ED1845
:103230008C01CE010E943618800F911FDF91CF9133
:103240001F910F9108954F925F926F927F928F928C
:103250009F92AF92BF92CF92DF92EF92FF920F9325
:103260001F93CF93DF93EC016A017B01B22E9A0189
:10327000AB01C701B6010E94CE20882319F060E798
:1032800071E027C026013701E89477F82FEF3FEF70
:103290004FE75FE7C301B2010E94CE2081110DC04C
:1032A0002FEF3FEF4FE75FE7C301B2010E94C51E5A
:1032B00018161CF464E771E00CC02FEF3FEF4FE7E6
:1032C0005FE4C701B6010E9467201816ACF468E7F6
:1032D00071E0CE01DF91CF911F910F91FF90EF90A0
:1032E000DF90CF90BF90AF909F908F907F906F9026
:1032F0005F904F900C94F2172FEF3FEF4FE75FEC8A
:10330000C701B6010E94C51E87FDE1CF20E030E075
:10331000A901C701B6010E94C51E87FF0AC06DE260
:10332000CE010E942F188C01F7FAF094F7F8F09470
:1033300002C000E010E0A12C60E070E080E09FE3BC
:10334000AB1441F020E030E040E251E40E94C91E9D
:10335000A394F6CF9B01AC01C701B6010E944E1E9B
:103360006B017C010E94361F2B013C010E94621FF1
:103370009B01AC01C701B6010E944D1E6B017C018F
:103380002AE0B301A201CE010E944A18080F191FBA
:10339000BB2039F06CE771E0CE010E94F217080FF4
:1033A000191F7B2C772041F120E030E040E251E40E
:1033B000C701B6010E946B206B017C010E94311F86
:1033C0004B01AA2497FCA094BA2C2AE030E0B50166
:1033D000A401CE010E94A318080F191FC501B40152
:1033E0000E94641F9B01AC01C701B6010E944D1EE3
:1033F0006B017C017A94D6CFC801DF91CF911F91E8
:103400000F91FF90EF90DF90CF90BF90AF909F9083
:103410008F907F906F905F904F9008950F931F93C0
:10342000CF93DF93EC010E9423198C01CE010E94FF
:103430003618800F911FDF91CF911F910F91089542
:10344000FF920F931F93CF93DF93EC01F22E7983BA
:1034500068838B01000F111F060F171F1B830A8340
:103460004C832B8750E0FA01ED52FF4FE491F0E0DE
:10347000EE0FFF1FEF50FF4F85919491998B888B32
:10348000FA01E154FF4F44914A8BC8010E94062182
:103490009F838E83009729F0A80160E070E00E946E
:1034A0002D22F0FE04C081E0888719860BC0F2FE51
:1034B00006C081E0888782E089871A8605C0188661
:1034C00081E0898782E08A87DF91CF911F910F91F8
:1034D000FF900895FC0186819781009711F00C946C
:1034E0009E210895CF93DF93EC0161E08C810E94CF
:1034F000031660E08C81DF91CF910C943C16CF9243
:10350000DF92EF92FF920F931F93CF93DF93CDB78C
:10351000DEB729970FB6F894DEBF0FBECDBF8C0182
:10352000DC0116968D919C911797892B09F49BC00D
:103530000E94E714F801C484D584E684F7846C19EA
:103540007D098E099F09623371058105910580F31C
:10355000F894828193819A838983A681B7817D01C2
:10356000EFEFEE1AFE0A8C918987D8011B969C9189
:103570001B9750960D90BC91A02DF801828991FF68
:103580002EC09C91982B98879C91809589238F833E
:103590008F818E8388E08D8358856F8149853D8139
:1035A0002E8189819A81F7015C9347FD252F3A95F9
:1035B0002C93262F39F0441F00C000006C930000AC
:1035C00000C0F2CF38E041916C930000019761F7A1
:1035D000F801B18BA08B49873D832E8338C09C9125
:1035E000982B98879C91809589238F838F818C83DA
:1035F00088E08B8358856F8149853B812C81898147
:103600009A81F7015C9347FD252F00C000C02C93E1
:1036100000C000C000C000C000C06C930000262F96
:103620003A9541F0441F000000C000C000C000C037
:1036300000C0E8CF38E0419100C06C9300C0019712
:1036400009F7F801B18BA08B49873B832C839A83C0
:10365000898378940E94E714D8011C966D937D931A
:103660008D939C931F9729960FB6F894DEBF0FBEDB
:10367000CDBFDF91CF911F910F91FF90EF90DF9021
:10368000CF9008950F93FC0180819181681779078D
:10369000C0F4DB01AA0FBB1FA60FB71F868197815D
:1036A0008A0F9B1F3085DC01A30FB11D4C93318520
:1036B000DC01A30FB11D2C932285FC01E20FF11D4B
:1036C00000830F910895FC0180819181681779072B
:1036D000C0F4DB01AA0FBB1FA60FB71F868197811D
:1036E0008A0F9B1F5085DC01A50FB11D4C934185AE
:1036F000DC01A40FB11D3C933285FC01E30FF11DE9
:1037000020830895962F50E060E070E0592B682BDD
:10371000CB01BA010895FC018081811101C082E1D1
:103720000E9472160895FC018081882311F08F5F3A
:1037300001C083E10C943C161F93CF93DF93EC01FF
:10374000162F61E0111160E08881811101C082E1D2
:103750000E9403168881811101C082E1612FDF91EF
:10376000CF911F910C943C16CF93DF93EC0189818C
:1037700090E00E94321561E0CE01DF91CF910C9470
:10378000931BCF93DF93EC01898190E00E94321567
:1037900060E0CE01DF91CF910C94931BCF93DF9328
:1037A000EC016883498361E00E949C1B8881882327
:1037B00011F08F5F01C083E161E00E940316CE012A
:1037C000DF91CF910C94B41BCF93DF93EC0160E0B9
:1037D0000E949C1BCE010E94B41B61E0CE01DF91D0
:1037E000CF910C949C1BEF92FF920F931F93CF935A
:1037F000DF93EC01E62E0E94C11B08E010E040E8D8
:10380000F42E6F2D6E21CE010E949C1BCE010E94D2
:10381000B41BCE010E94C11BF69401501109011581
:10382000110579F761E0CE010E949C1BCE010E9438
:10383000B41BCE010E948B1B182FCE010E94C11B0E
:1038400081E0111180E0DF91CF911F910F91FF90E6
:10385000EF9008950C94F31B1F93CF93DF93EC012B
:10386000162F0E94C11BCE010E94B41B60E0CE0146
:103870000E949C1B612FCE01DF91CF911F910C9470
:10388000F31BFC016281808191810C942C1C0F93AD
:103890001F93CF93DF9300D0CDB7DEB78C014A835F
:1038A00069830E94411C6981F801808191810E9495
:1038B0002A1C4A81642FF801808191810E942A1C70
:1038C000F801808191810E94E41B6AE070E080E051
:1038D00090E00F900F90DF91CF911F910F910C947A
:1038E0000A15EF92FF921F93CF93DF931F92CDB7EC
:1038F000DEB77C01162F49830E94411C67E1F70166
:10390000808191810E942A1C4981642FF701808166
:1039100091810E942A1C612F606AF7018081918148
:103920000E942A1CF701808191810E94E41B6AE0B9
:1039300070E080E090E00F90DF91CF911F91FF90B9
:10394000EF900C940A15FC01628161608081918185
:103950000C942C1CDF92EF92FF920F931F93CF9346
:10396000DF93EC01D62E08E010E050E8E52EF12CB4
:10397000CE010E94B41BCE010E948B1B8111FE2838
:10398000CE010E94C11BE6940150110901151105D9
:1039900079F76D2DCE010E949C1BCE010E94B41BB5
:1039A000CE010E94C11BDD2019F0CE010E94E41B54
:1039B00061E0CE010E949C1B8F2DDF91CF911F9162
:1039C0000F91FF90EF90DF900895EF92FF921F9379
:1039D000CF93DF931F92CDB7DEB77C0169830E943E
:1039E000411C6981F701808191810E942A1CC701D5
:1039F0000E94A31C61E0F701808191810E94AA1CB2
:103A0000182FF701808191810E94E41B6AE070E029
:103A100080E090E00E940A15812F0F90DF91CF91F6
:103A20001F91FF90EF9008951F93CF93DF93EC01C8
:103A3000162F0E94411C68E1888199810E942A1CEE
:103A4000612F6068888199810E942A1C88819981F0
:103A50000E94E41B6AE070E080E090E00E940A159A
:103A60006EE2CE01DF91CF911F910C94E51CFF9285
:103A70000F931F93CF93DF93EC010E94411C66E2EA
:103A8000888199810E942A1CCE010E94A31C8E016C
:103A9000075F1F4F66E0F62E60E0888199810E94E3
:103AA000AA1CF80181938F01FA94B1F761E0888133
:103AB00099810E94AA1C88819981DF91CF911F91E1
:103AC0000F91FF900C94E41B22E831E0FC0131835C
:103AD000208312821382148215820895FC0146838A
:103AE0005783608771870895FC0142835383648301
:103AF00075830895CF92DF92EF92FF92CF93DF9379
:103B0000EC01CB01BA012E813F81488559850E9485
:103B1000C91E6B017C012A813B814C815D810E9421
:103B20006B20A70196010E946B20DF91CF91FF903F
:103B3000EF90DF90CF9008958F929F92AF92BF92B7
:103B4000CF92DF92EF92FF92CF93DF93EC01CB0104
:103B5000BA012E813F81488559850E94C91E6B019B
:103B60007C018A819B81AC81BD81BC01CD019058D3
:103B7000A70196010E946B204B015C0120E030E020
:103B800040E050E4C701B6010E944D1E9B01AC010C
:103B9000C501B4010E946B20DF91CF91FF90EF909F
:103BA000DF90CF90BF90AF909F908F9008958F92AD
:103BB0009F92AF92BF92CF92DF92EF92FF92CF93FC
:103BC000DF93EC016A017B0120E030E040E05FE33D
:103BD0006E817F81888599850E946B209B01AC0155
:103BE000C701B6010E94C91E6B017C0120E030E0D4
:103BF00040E85FE30E94C51E87FF11C020E030E06F
:103C000040E05FE36A817B818C819D810E946B2013
:103C1000A70196010E946B20A701960131C020E008
:103C200030E040E85FE3C701B6010E944D1E6B0122
:103C30007C018A819B81AC81BD81BC01CD01905802
:103C400020E030E040E05FE30E946B204B015C012C
:103C500020E030E040E050E4C701B6010E944D1E74
:103C60009B01AC01C701B6010E946B2020E030E04F
:103C700040E85FE30E944D1E9B01AC01C501B40109
:103C80000E946B20DF91CF91FF90EF90DF90CF905B
:103C9000BF90AF909F908F9008955058BB27AA2750
:103CA0000ED0C4C1B5D130F0BAD120F031F49F3F6D
:103CB00011F41EF4AAC10EF4E095E7FB77C1E92FD9
:103CC000C6D180F3BA17620773078407950718F007
:103CD00071F49EF5F5C10EF4E0950B2EBA2FA02DD0
:103CE0000B01B90190010C01CA01A0011124FF27A9
:103CF000591B99F0593F50F4503E68F11A16F040A4
:103D0000A22F232F342F4427585FF3CF46953795A2
:103D10002795A795F0405395C9F77EF41F16BA0B67
:103D2000620B730B840BBAF09150A1F0FF0FBB1F15
:103D3000661F771F881FC2F70EC0BA0F621F731F5E
:103D4000841F48F4879577956795B795F7959E3FBB
:103D500008F0B3CF9395880F08F09927EE0F979549
:103D60008795089596D180F09F3740F491110EF415
:103D7000A8C160E070E080E89FE3089526F01B167C
:103D8000611D711D811D18C132C1ECD008F481E0A4
:103D900008950CD04BC143D140F03AD130F021F41A
:103DA0005F3F19F003C151118CC12FC150D198F35D
:103DB0009923C9F35523B1F3951B550BBB27AA27AC
:103DC00062177307840738F09F5F5F4F220F331F1E
:103DD000441FAA1FA9F333D00E2E3AF0E0E830D0EA
:103DE00091505040E695001CCAF729D0FE2F27D0ED
:103DF000660F771F881FBB1F261737074807AB07BB
:103E0000B0E809F0BB0B802DBF01FF2793585F4F2F
:103E10002AF09E3F510568F0C9C053C15F3FECF3E3
:103E2000983EDCF3869577956795B795F7959F5FF4
:103E3000C9F7880F911D9695879597F90895E1E048
:103E4000660F771F881FBB1F621773078407BA07A7
:103E500020F0621B730B840BBA0BEE1F88F7E09502
:103E6000089504D06894B1112CC10895F8D088F059
:103E70009F5790F0B92F9927B751A0F0D1F0660F56
:103E8000771F881F991F1AF0BA95C9F712C0B13071
:103E900081F016D1B1E0089513C1672F782F8827DC
:103EA000B85F39F0B93FCCF3869577956795B395B0
:103EB000D9F73EF490958095709561957F4F8F4F1F
:103EC0009F4F0895E89409C097FB3EF49095809524
:103ED000709561957F4F8F4F9F4F9923A9F0F92FD0
:103EE00096E9BB279395F695879577956795B7954E
:103EF000F111F8CFFAF4BB0F11F460FF1BC06F5F34
:103F00007F4F8F4F9F4F16C0882311F096E911C045
:103F1000772321F09EE8872F762F05C0662371F066
:103F200096E8862F70E060E02AF09A95660F771F7A
:103F3000881FDAF7880F9695879597F90895A9D085
:103F400080F09F3740F491110EF0BBC060E070E04C
:103F500080E89FEB089526F41B16611D711D811DDD
:103F60002BC045C0990F0008550FAA0BE0E8FEEFE3
:103F700016161706E807F907C0F012161306E4072D
:103F8000F50798F0621B730B840B950B39F40A2626
:103F900061F0232B242B252B21F408950A2609F404
:103FA000A140A6958FEF811D811D089597F99F6708
:103FB00080E870E060E00895882371F4772321F0B1
:103FC0009850872B762F07C0662311F499270DC0D0
:103FD0009051862B70E060E02AF09A95660F771F6B
:103FE000881FDAF7880F9695879597F908959F3F70
:103FF00031F0915020F4879577956795B795880FA4
:10400000911D9695879597F908959FEF80EC0895F7
:1040100000240A94161617061806090608950024A7
:104020000A9412161306140605060895092E039421
:10403000000C11F4882352F0BB0F40F4BF2B11F495
:1040400060FF04C06F5F7F4F8F4F9F4F089557FDF4
:104050009058440F551F59F05F3F71F04795880FF6
:1040600097FB991F61F09F3F79F08795089512168D
:1040700013061406551FF2CF4695F1DF08C0161639
:1040800017061806991FF1CF8695710561050894EA
:104090000895E5DFA0F0BEE7B91788F4BB279F3885
:1040A00060F41616B11D672F782F8827985FF7CF19
:1040B000869577956795B11D93959639C8F30895C0
:1040C000E894BB2766277727CB0197F908954ADF45
:1040D00008F48FEF08950BD0A9CF9ADF28F09FDF67
:1040E00018F0952309F062CF90CF1124EACFAFDF0B
:1040F000A0F3959FD1F3950F50E0551F629FF001FB
:10410000729FBB27F00DB11D639FAA27F00DB11D53
:10411000AA1F649F6627B00DA11D661F829F2227DC
:10412000B00DA11D621F739FB00DA11D621F839F63
:10413000A00D611D221F749F3327A00D611D231F39
:10414000849F600D211D822F762F6A2F11249F5787
:1041500050408AF0E1F088234AF0EE0FFF1FBB1FAA
:10416000661F771F881F91505040A9F79E3F510549
:1041700070F01CCFA6CF5F3FECF3983EDCF3869542
:1041800077956795B795F795E7959F5FC1F7FE2BF4
:10419000880F911D9695879597F90895E3DE880B12
:1041A000990B0895991B79E004C0991F961708F0A0
:1041B000961B881F7A95C9F780950895A1E21A2E5B
:1041C000AA1BBB1BFD010DC0AA1FBB1FEE1FFF1FBB
:1041D000A217B307E407F50720F0A21BB30BE40B0B
:1041E000F50B661F771F881F991F1A9469F7609552
:1041F0007095809590959B01AC01BD01CF0108950C
:10420000EE0FFF1F0590F491E02D0994CF93DF93FB
:104210008230910510F482E090E0E091BE03F091CD
:10422000BF0320E030E0A0E0B0E0309739F14081FA
:10423000518148175907B8F04817590771F482811E
:104240009381109729F013969C938E9312972CC00C
:104250009093BF038093BE0327C02115310531F031
:104260004217530718F0A901DB0101C0EF019A01C1
:10427000BD01DF010280F381E02DD7CF211531058B
:10428000F9F0281B390B2430310580F48A819B8199
:104290006115710521F0FB019383828304C0909323
:1042A000BF038093BE03FE01329644C0FE01E20FBD
:1042B000F31F8193919322503109398328833AC0A7
:1042C0002091BC033091BD03232B41F420910201C6
:1042D000309103013093BD032093BC032091000172
:1042E000309101012115310541F42DB73EB74091C0
:1042F000040150910501241B350BE091BC03F091A2
:10430000BD03E217F307A0F42E1B3F0B2817390754
:1043100078F0AC014E5F5F4F2417350748F04E0F21
:104320005F1F5093BD034093BC038193919302C0E0
:10433000E0E0F0E0CF01DF91CF910895CF93DF93DC
:10434000009709F487C0FC01329713821282C09152
:10435000BE03D091BF03209781F420813181280FC3
:10436000391F8091BC039091BD038217930779F5A3
:10437000F093BD03E093BC036DC0DE0120E030E0AC
:10438000AE17BF0750F412964D915C9113979D01A3
:104390004115510509F1DA01F3CFB383A2834081BE
:1043A0005181840F951F8A179B0771F48D919C9101
:1043B0001197840F951F02969183808312968D9199
:1043C0009C911397938382832115310529F4F093EF
:1043D000BF03E093BE033EC0D9011396FC93EE9356
:1043E00012974D915D91A40FB51FEA17FB0779F461
:1043F00080819181840F951F0296D90111969C931B
:104400008E938281938113969C938E931297E0E012
:10441000F0E08A819B81009719F0FE01EC01F9CF51
:10442000CE01029628813981820F931F2091BC030F
:104430003091BD032817390769F4309729F4109299
:10444000BF031092BE0302C013821282D093BD0339
:10445000C093BC03DF91CF910895DC0101C06D933F
:0C44600041505040E0F70895F894FFCF61
:10446C000000C00320004B01202D2D2D3E20536158
:10447C007720686561727462656174412C20646593
:10448C006C6179696E673A2000202D2D2D3E2053EA
:10449C00617720686561727462656174422C206476
:1044AC00656C6179696E673A200050535F4C4544E6
:1044BC003231203D200043484C495354203D2000CC
:1044CC0000000000E116CA17A916C216B416D616BB
:1044DC006E616E00696E66006F7666002E000000DD
:1044EC000000AF00AF00AF00000000007A1D9C1D63
:0244FC00D71DCA
:00000001FF
